{"abi":[{"type":"constructor","inputs":[{"name":"_teamA","type":"string","internalType":"string"},{"name":"_teamB","type":"string","internalType":"string"},{"name":"_matchId","type":"uint256","internalType":"uint256"},{"name":"_owner","type":"address","internalType":"address"}],"stateMutability":"nonpayable"},{"type":"function","name":"TOTAL_BALLS","inputs":[],"outputs":[{"name":"","type":"uint256","internalType":"uint256"}],"stateMutability":"view"},{"type":"function","name":"balls","inputs":[{"name":"","type":"uint256","internalType":"uint256"}],"outputs":[{"name":"ballNumber","type":"uint256","internalType":"uint256"},{"name":"state","type":"uint8","internalType":"enum CricketBettingGame.BallState"},{"name":"result","type":"uint8","internalType":"enum CricketBettingGame.BallOutcome"},{"name":"totalPool","type":"uint256","internalType":"uint256"},{"name":"uniqueBettorCount","type":"uint256","internalType":"uint256"},{"name":"distributed","type":"bool","internalType":"bool"},{"name":"refunded","type":"bool","internalType":"bool"}],"stateMutability":"view"},{"type":"function","name":"cancelBall","inputs":[{"name":"_ballNumber","type":"uint256","internalType":"uint256"},{"name":"_reason","type":"string","internalType":"string"}],"outputs":[],"stateMutability":"nonpayable"},{"type":"function","name":"closeBall","inputs":[{"name":"_ballNumber","type":"uint256","internalType":"uint256"}],"outputs":[],"stateMutability":"nonpayable"},{"type":"function","name":"currentBall","inputs":[],"outputs":[{"name":"","type":"uint256","internalType":"uint256"}],"stateMutability":"view"},{"type":"function","name":"emergencyPause","inputs":[],"outputs":[],"stateMutability":"nonpayable"},{"type":"function","name":"factory","inputs":[],"outputs":[{"name":"","type":"address","internalType":"address"}],"stateMutability":"view"},{"type":"function","name":"getBallBettingDetails","inputs":[{"name":"_ballNumber","type":"uint256","internalType":"uint256"}],"outputs":[{"name":"boundaryBets","type":"uint256","internalType":"uint256"},{"name":"wicketBets","type":"uint256","internalType":"uint256"},{"name":"dotBallBets","type":"uint256","internalType":"uint256"},{"name":"oneRunBets","type":"uint256","internalType":"uint256"},{"name":"twoRunsBets","type":"uint256","internalType":"uint256"},{"name":"extrasBets","type":"uint256","internalType":"uint256"},{"name":"totalPool","type":"uint256","internalType":"uint256"},{"name":"totalBettors","type":"uint256","internalType":"uint256"}],"stateMutability":"view"},{"type":"function","name":"getBallInfo","inputs":[{"name":"_ballNumber","type":"uint256","internalType":"uint256"}],"outputs":[{"name":"state","type":"uint8","internalType":"enum CricketBettingGame.BallState"},{"name":"result","type":"uint8","internalType":"enum CricketBettingGame.BallOutcome"},{"name":"totalPool","type":"uint256","internalType":"uint256"},{"name":"outcomeBets","type":"uint256[6]","internalType":"uint256[6]"},{"name":"uniqueBettorCount","type":"uint256","internalType":"uint256"},{"name":"distributed","type":"bool","internalType":"bool"},{"name":"refunded","type":"bool","internalType":"bool"}],"stateMutability":"view"},{"type":"function","name":"getBallOutcomeString","inputs":[{"name":"_outcome","type":"uint8","internalType":"enum CricketBettingGame.BallOutcome"}],"outputs":[{"name":"","type":"string","internalType":"string"}],"stateMutability":"pure"},{"type":"function","name":"getContractBalance","inputs":[],"outputs":[{"name":"","type":"uint256","internalType":"uint256"}],"stateMutability":"view"},{"type":"function","name":"getMatchInfo","inputs":[],"outputs":[{"name":"","type":"string","internalType":"string"},{"name":"","type":"string","internalType":"string"},{"name":"","type":"uint256","internalType":"uint256"},{"name":"","type":"uint256","internalType":"uint256"},{"name":"","type":"uint256","internalType":"uint256"}],"stateMutability":"view"},{"type":"function","name":"getMultipleBallsInfo","inputs":[{"name":"_startBall","type":"uint256","internalType":"uint256"},{"name":"_endBall","type":"uint256","internalType":"uint256"}],"outputs":[{"name":"states","type":"uint8[]","internalType":"enum CricketBettingGame.BallState[]"},{"name":"results","type":"uint8[]","internalType":"enum CricketBettingGame.BallOutcome[]"},{"name":"totalPools","type":"uint256[]","internalType":"uint256[]"}],"stateMutability":"view"},{"type":"function","name":"getUserBalance","inputs":[{"name":"_user","type":"address","internalType":"address"}],"outputs":[{"name":"","type":"uint256","internalType":"uint256"}],"stateMutability":"view"},{"type":"function","name":"getUserBetForBall","inputs":[{"name":"_ballNumber","type":"uint256","internalType":"uint256"},{"name":"_user","type":"address","internalType":"address"},{"name":"_outcome","type":"uint8","internalType":"enum CricketBettingGame.BallOutcome"}],"outputs":[{"name":"","type":"uint256","internalType":"uint256"}],"stateMutability":"view"},{"type":"function","name":"getUserTotalBetForBall","inputs":[{"name":"_ballNumber","type":"uint256","internalType":"uint256"},{"name":"_user","type":"address","internalType":"address"}],"outputs":[{"name":"totalBet","type":"uint256","internalType":"uint256"}],"stateMutability":"view"},{"type":"function","name":"matchId","inputs":[],"outputs":[{"name":"","type":"uint256","internalType":"uint256"}],"stateMutability":"view"},{"type":"function","name":"openBall","inputs":[{"name":"_ballNumber","type":"uint256","internalType":"uint256"}],"outputs":[],"stateMutability":"nonpayable"},{"type":"function","name":"owner","inputs":[],"outputs":[{"name":"","type":"address","internalType":"address"}],"stateMutability":"view"},{"type":"function","name":"placeBet","inputs":[{"name":"_ballNumber","type":"uint256","internalType":"uint256"},{"name":"_outcome","type":"uint8","internalType":"enum CricketBettingGame.BallOutcome"}],"outputs":[],"stateMutability":"payable"},{"type":"function","name":"placeBets","inputs":[{"name":"_ballNumber","type":"uint256","internalType":"uint256"},{"name":"_outcomes","type":"uint8[]","internalType":"enum CricketBettingGame.BallOutcome[]"},{"name":"_amounts","type":"uint256[]","internalType":"uint256[]"}],"outputs":[],"stateMutability":"payable"},{"type":"function","name":"reportBallResult","inputs":[{"name":"_ballNumber","type":"uint256","internalType":"uint256"},{"name":"_result","type":"uint8","internalType":"enum CricketBettingGame.BallOutcome"}],"outputs":[],"stateMutability":"nonpayable"},{"type":"function","name":"teamA","inputs":[],"outputs":[{"name":"","type":"string","internalType":"string"}],"stateMutability":"view"},{"type":"function","name":"teamB","inputs":[],"outputs":[{"name":"","type":"string","internalType":"string"}],"stateMutability":"view"},{"type":"function","name":"userBalances","inputs":[{"name":"","type":"address","internalType":"address"}],"outputs":[{"name":"","type":"uint256","internalType":"uint256"}],"stateMutability":"view"},{"type":"function","name":"withdraw","inputs":[],"outputs":[],"stateMutability":"nonpayable"},{"type":"event","name":"BallCancelled","inputs":[{"name":"ballNumber","type":"uint256","indexed":true,"internalType":"uint256"},{"name":"reason","type":"string","indexed":false,"internalType":"string"},{"name":"timestamp","type":"uint256","indexed":false,"internalType":"uint256"}],"anonymous":false},{"type":"event","name":"BallClosed","inputs":[{"name":"ballNumber","type":"uint256","indexed":true,"internalType":"uint256"},{"name":"timestamp","type":"uint256","indexed":false,"internalType":"uint256"}],"anonymous":false},{"type":"event","name":"BallOpened","inputs":[{"name":"ballNumber","type":"uint256","indexed":true,"internalType":"uint256"},{"name":"timestamp","type":"uint256","indexed":false,"internalType":"uint256"}],"anonymous":false},{"type":"event","name":"BallResult","inputs":[{"name":"ballNumber","type":"uint256","indexed":true,"internalType":"uint256"},{"name":"result","type":"uint8","indexed":false,"internalType":"enum CricketBettingGame.BallOutcome"},{"name":"timestamp","type":"uint256","indexed":false,"internalType":"uint256"}],"anonymous":false},{"type":"event","name":"BetPlaced","inputs":[{"name":"ballNumber","type":"uint256","indexed":true,"internalType":"uint256"},{"name":"bettor","type":"address","indexed":true,"internalType":"address"},{"name":"outcome","type":"uint8","indexed":false,"internalType":"enum CricketBettingGame.BallOutcome"},{"name":"amount","type":"uint256","indexed":false,"internalType":"uint256"},{"name":"timestamp","type":"uint256","indexed":false,"internalType":"uint256"}],"anonymous":false},{"type":"event","name":"BetsRefunded","inputs":[{"name":"ballNumber","type":"uint256","indexed":true,"internalType":"uint256"},{"name":"totalRefunded","type":"uint256","indexed":false,"internalType":"uint256"},{"name":"bettorsCount","type":"uint256","indexed":false,"internalType":"uint256"},{"name":"timestamp","type":"uint256","indexed":false,"internalType":"uint256"}],"anonymous":false},{"type":"event","name":"MatchCompleted","inputs":[{"name":"matchId","type":"uint256","indexed":false,"internalType":"uint256"},{"name":"timestamp","type":"uint256","indexed":false,"internalType":"uint256"}],"anonymous":false},{"type":"event","name":"WinningsDistributed","inputs":[{"name":"ballNumber","type":"uint256","indexed":true,"internalType":"uint256"},{"name":"winningOutcome","type":"uint8","indexed":false,"internalType":"enum CricketBettingGame.BallOutcome"},{"name":"totalPool","type":"uint256","indexed":false,"internalType":"uint256"},{"name":"winnersCount","type":"uint256","indexed":false,"internalType":"uint256"},{"name":"timestamp","type":"uint256","indexed":false,"internalType":"uint256"}],"anonymous":false}],"bytecode":{"object":"0x60806040525f600555348015610013575f5ffd5b5060405161524b38038061524b833981810160405281019061003591906102be565b83600290816100449190610561565b5082600390816100549190610561565b5081600481905550805f5f6101000a81548173ffffffffffffffffffffffffffffffffffffffff021916908373ffffffffffffffffffffffffffffffffffffffff1602179055503360015f6101000a81548173ffffffffffffffffffffffffffffffffffffffff021916908373ffffffffffffffffffffffffffffffffffffffff16021790555050505050610630565b5f604051905090565b5f5ffd5b5f5ffd5b5f5ffd5b5f5ffd5b5f601f19601f8301169050919050565b7f4e487b71000000000000000000000000000000000000000000000000000000005f52604160045260245ffd5b610143826100fd565b810181811067ffffffffffffffff821117156101625761016161010d565b5b80604052505050565b5f6101746100e4565b9050610180828261013a565b919050565b5f67ffffffffffffffff82111561019f5761019e61010d565b5b6101a8826100fd565b9050602081019050919050565b8281835e5f83830152505050565b5f6101d56101d084610185565b61016b565b9050828152602081018484840111156101f1576101f06100f9565b5b6101fc8482856101b5565b509392505050565b5f82601f830112610218576102176100f5565b5b81516102288482602086016101c3565b91505092915050565b5f819050919050565b61024381610231565b811461024d575f5ffd5b50565b5f8151905061025e8161023a565b92915050565b5f73ffffffffffffffffffffffffffffffffffffffff82169050919050565b5f61028d82610264565b9050919050565b61029d81610283565b81146102a7575f5ffd5b50565b5f815190506102b881610294565b92915050565b5f5f5f5f608085870312156102d6576102d56100ed565b5b5f85015167ffffffffffffffff8111156102f3576102f26100f1565b5b6102ff87828801610204565b945050602085015167ffffffffffffffff8111156103205761031f6100f1565b5b61032c87828801610204565b935050604061033d87828801610250565b925050606061034e878288016102aa565b91505092959194509250565b5f81519050919050565b7f4e487b71000000000000000000000000000000000000000000000000000000005f52602260045260245ffd5b5f60028204905060018216806103a857607f821691505b6020821081036103bb576103ba610364565b5b50919050565b5f819050815f5260205f209050919050565b5f6020601f8301049050919050565b5f82821b905092915050565b5f6008830261041d7fffffffffffffffffffffffffffffffffffffffffffffffffffffffffffffffff826103e2565b61042786836103e2565b95508019841693508086168417925050509392505050565b5f819050919050565b5f61046261045d61045884610231565b61043f565b610231565b9050919050565b5f819050919050565b61047b83610448565b61048f61048782610469565b8484546103ee565b825550505050565b5f5f905090565b6104a6610497565b6104b1818484610472565b505050565b5b818110156104d4576104c95f8261049e565b6001810190506104b7565b5050565b601f821115610519576104ea816103c1565b6104f3846103d3565b81016020851015610502578190505b61051661050e856103d3565b8301826104b6565b50505b505050565b5f82821c905092915050565b5f6105395f198460080261051e565b1980831691505092915050565b5f610551838361052a565b9150826002028217905092915050565b61056a8261035a565b67ffffffffffffffff8111156105835761058261010d565b5b61058d8254610391565b6105988282856104d8565b5f60209050601f8311600181146105c9575f84156105b7578287015190505b6105c18582610546565b865550610628565b601f1984166105d7866103c1565b5f5b828110156105fe578489015182556001820191506020850194506020810190506105d9565b8683101561061b5784890151610617601f89168261052a565b8355505b6001600288020188555050505b505050505050565b614c0e8061063d5f395ff3fe608060405260043610610180575f3560e01c80636c21e514116100d057806390004781116100895780639e4f372b116100635780639e4f372b1461057f578063c45a0155146105bb578063dba71be6146105e5578063edfbcba31461060f57610180565b806390004781146104e957806398c40f351461052b57806399892e471461055557610180565b80636c21e514146103dd5780636e777921146104055780636f9fb98a14610441578063826df9aa1461046b5780638aa7c3e8146104955780638da5cb5b146104bf57610180565b80633e98275f1161013d57806351858e271161011757806351858e271461032157806353be326a1461033757806355b006371461037957806367d85375146103b557610180565b80633e98275f1461028b57806342c4ee5d146102c957806347734892146102e557610180565b806303edf91414610184578063063c67c2146101a0578063162523b3146101ce57806326224c64146101f65780633371c0bf146102325780633ccfd60b14610275575b5f5ffd5b61019e6004803603810190610199919061356c565b610637565b005b3480156101ab575f5ffd5b506101b4610ae2565b6040516101c5959493929190613629565b60405180910390f35b3480156101d9575f5ffd5b506101f460048036038101906101ef9190613688565b610c19565b005b348015610201575f5ffd5b5061021c6004803603810190610217919061370d565b610df5565b6040516102299190613738565b60405180910390f35b34801561023d575f5ffd5b5061025860048036038101906102539190613688565b610e0a565b60405161026c989796959493929190613751565b60405180910390f35b348015610280575f5ffd5b50610289610ff2565b005b348015610296575f5ffd5b506102b160048036038101906102ac91906137cd565b6110fe565b6040516102c093929190613abb565b60405180910390f35b6102e360048036038101906102de9190613d05565b611383565b005b3480156102f0575f5ffd5b5061030b6004803603810190610306919061370d565b6119cf565b6040516103189190613738565b60405180910390f35b34801561032c575f5ffd5b50610335611a15565b005b348015610342575f5ffd5b5061035d60048036038101906103589190613688565b611aa5565b6040516103709796959493929190613e44565b60405180910390f35b348015610384575f5ffd5b5061039f600480360381019061039a9190613eb5565b611d03565b6040516103ac9190613738565b60405180910390f35b3480156103c0575f5ffd5b506103db60048036038101906103d69190613fb5565b611de1565b005b3480156103e8575f5ffd5b5061040360048036038101906103fe9190613688565b612019565b005b348015610410575f5ffd5b5061042b6004803603810190610426919061400f565b6122a0565b6040516104389190613738565b60405180910390f35b34801561044c575f5ffd5b50610455612612565b6040516104629190613738565b60405180910390f35b348015610476575f5ffd5b5061047f612619565b60405161048c919061404d565b60405180910390f35b3480156104a0575f5ffd5b506104a96126a5565b6040516104b6919061404d565b60405180910390f35b3480156104ca575f5ffd5b506104d3612731565b6040516104e0919061407c565b60405180910390f35b3480156104f4575f5ffd5b5061050f600480360381019061050a9190613688565b612755565b6040516105229796959493929190614095565b60405180910390f35b348015610536575f5ffd5b5061053f6127c5565b60405161054c9190613738565b60405180910390f35b348015610560575f5ffd5b506105696127cb565b6040516105769190613738565b60405180910390f35b34801561058a575f5ffd5b506105a560048036038101906105a09190614102565b6127d1565b6040516105b2919061404d565b60405180910390f35b3480156105c6575f5ffd5b506105cf612a86565b6040516105dc919061407c565b60405180910390f35b3480156105f0575f5ffd5b506105f9612aab565b6040516106069190613738565b60405180910390f35b34801561061a575f5ffd5b506106356004803603810190610630919061356c565b612ab0565b005b815f81118015610648575060788111155b610687576040517f08c379a000000000000000000000000000000000000000000000000000000000815260040161067e90614177565b60405180910390fd5b5f34116106c9576040517f08c379a00000000000000000000000000000000000000000000000000000000081526004016106c090614205565b60405180910390fd5b600160028111156106dd576106dc613834565b5b60065f8581526020019081526020015f206001015f9054906101000a900460ff1660028111156107105761070f613834565b5b14610750576040517f08c379a00000000000000000000000000000000000000000000000000000000081526004016107479061426d565b60405180910390fd5b5f600681111561076357610762613834565b5b82600681111561077657610775613834565b5b036107b6576040517f08c379a00000000000000000000000000000000000000000000000000000000081526004016107ad906142d5565b60405180910390fd5b5f60065f8581526020019081526020015f209050806005015f3373ffffffffffffffffffffffffffffffffffffffff1673ffffffffffffffffffffffffffffffffffffffff1681526020019081526020015f205f9054906101000a900460ff1661088b576001816005015f3373ffffffffffffffffffffffffffffffffffffffff1673ffffffffffffffffffffffffffffffffffffffff1681526020019081526020015f205f6101000a81548160ff021916908315150217905550806007015f81548092919061088590614320565b91905055505b5f816004015f3373ffffffffffffffffffffffffffffffffffffffff1673ffffffffffffffffffffffffffffffffffffffff1681526020019081526020015f205f8560068111156108df576108de613834565b5b60068111156108f1576108f0613834565b5b81526020019081526020015f20540361099a57806003015f84600681111561091c5761091b613834565b5b600681111561092e5761092d613834565b5b81526020019081526020015f2033908060018154018082558091505060019003905f5260205f20015f9091909190916101000a81548173ffffffffffffffffffffffffffffffffffffffff021916908373ffffffffffffffffffffffffffffffffffffffff1602179055505b34816004015f3373ffffffffffffffffffffffffffffffffffffffff1673ffffffffffffffffffffffffffffffffffffffff1681526020019081526020015f205f8560068111156109ee576109ed613834565b5b6006811115610a00576109ff613834565b5b81526020019081526020015f205f828254610a1b9190614367565b9250508190555034816002015f856006811115610a3b57610a3a613834565b5b6006811115610a4d57610a4c613834565b5b81526020019081526020015f205f828254610a689190614367565b9250508190555034816006015f828254610a829190614367565b925050819055503373ffffffffffffffffffffffffffffffffffffffff16847fbfcd8f4e47cc529f86cdc7eab8fb80e015a298e021fcaee72df1f76dd57cf487853442604051610ad49392919061439a565b60405180910390a350505050565b6060805f5f5f600260036004546005546078848054610b00906143fc565b80601f0160208091040260200160405190810160405280929190818152602001828054610b2c906143fc565b8015610b775780601f10610b4e57610100808354040283529160200191610b77565b820191905f5260205f20905b815481529060010190602001808311610b5a57829003601f168201915b50505050509450838054610b8a906143fc565b80601f0160208091040260200160405190810160405280929190818152602001828054610bb6906143fc565b8015610c015780601f10610bd857610100808354040283529160200191610c01565b820191905f5260205f20905b815481529060010190602001808311610be457829003601f168201915b50505050509350945094509450945094509091929394565b5f5f9054906101000a900473ffffffffffffffffffffffffffffffffffffffff1673ffffffffffffffffffffffffffffffffffffffff163373ffffffffffffffffffffffffffffffffffffffff1614610ca7576040517f08c379a0000000000000000000000000000000000000000000000000000000008152600401610c9e9061449c565b60405180910390fd5b805f81118015610cb8575060788111155b610cf7576040517f08c379a0000000000000000000000000000000000000000000000000000000008152600401610cee90614177565b60405180910390fd5b60016002811115610d0b57610d0a613834565b5b60065f8481526020019081526020015f206001015f9054906101000a900460ff166002811115610d3e57610d3d613834565b5b14610d7e576040517f08c379a0000000000000000000000000000000000000000000000000000000008152600401610d7590614504565b60405180910390fd5b5f60065f8481526020019081526020015f206001015f6101000a81548160ff02191690836002811115610db457610db3613834565b5b0217905550817f6991db13c9034e0bcafe7f947720e92c4729153910eb3238c69a912b7fa16adc42604051610de99190613738565b60405180910390a25050565b6007602052805f5260405f205f915090505481565b5f5f5f5f5f5f5f5f885f81118015610e23575060788111155b610e62576040517f08c379a0000000000000000000000000000000000000000000000000000000008152600401610e5990614177565b60405180910390fd5b5f60065f8c81526020019081526020015f209050806002015f60016006811115610e8f57610e8e613834565b5b6006811115610ea157610ea0613834565b5b81526020019081526020015f20549950806002015f60026006811115610eca57610ec9613834565b5b6006811115610edc57610edb613834565b5b81526020019081526020015f20549850806002015f60036006811115610f0557610f04613834565b5b6006811115610f1757610f16613834565b5b81526020019081526020015f20549750806002015f60046006811115610f4057610f3f613834565b5b6006811115610f5257610f51613834565b5b81526020019081526020015f20549650806002015f60056006811115610f7b57610f7a613834565b5b6006811115610f8d57610f8c613834565b5b81526020019081526020015f20549550806002015f600680811115610fb557610fb4613834565b5b6006811115610fc757610fc6613834565b5b81526020019081526020015f2054945080600601549350806007015492505050919395975091939597565b5f60075f3373ffffffffffffffffffffffffffffffffffffffff1673ffffffffffffffffffffffffffffffffffffffff1681526020019081526020015f205490505f8111611075576040517f08c379a000000000000000000000000000000000000000000000000000000000815260040161106c9061456c565b60405180910390fd5b5f60075f3373ffffffffffffffffffffffffffffffffffffffff1673ffffffffffffffffffffffffffffffffffffffff1681526020019081526020015f20819055503373ffffffffffffffffffffffffffffffffffffffff166108fc8290811502906040515f60405180830381858888f193505050501580156110fa573d5f5f3e3d5ffd5b5050565b6060806060838511158015611114575060788411155b611153576040517f08c379a000000000000000000000000000000000000000000000000000000000815260040161114a906145d4565b60405180910390fd5b5f6001868661116291906145f2565b61116c9190614367565b90508067ffffffffffffffff81111561118857611187613b09565b5b6040519080825280602002602001820160405280156111b65781602001602082028036833780820191505090505b5093508067ffffffffffffffff8111156111d3576111d2613b09565b5b6040519080825280602002602001820160405280156112015781602001602082028036833780820191505090505b5092508067ffffffffffffffff81111561121e5761121d613b09565b5b60405190808252806020026020018201604052801561124c5781602001602082028036833780820191505090505b5091505f5f90505b8181101561137a575f81886112699190614367565b905060065f8281526020019081526020015f206001015f9054906101000a900460ff1686838151811061129f5761129e614625565b5b602002602001019060028111156112b9576112b8613834565b5b908160028111156112cd576112cc613834565b5b8152505060065f8281526020019081526020015f2060010160019054906101000a900460ff1685838151811061130657611305614625565b5b602002602001019060068111156113205761131f613834565b5b9081600681111561133457611333613834565b5b8152505060065f8281526020019081526020015f20600601548483815181106113605761135f614625565b5b602002602001018181525050508080600101915050611254565b50509250925092565b825f81118015611394575060788111155b6113d3576040517f08c379a00000000000000000000000000000000000000000000000000000000081526004016113ca90614177565b60405180910390fd5b8151835114611417576040517f08c379a000000000000000000000000000000000000000000000000000000000815260040161140e9061469c565b60405180910390fd5b5f83511161145a576040517f08c379a000000000000000000000000000000000000000000000000000000000815260040161145190614704565b60405180910390fd5b6001600281111561146e5761146d613834565b5b60065f8681526020019081526020015f206001015f9054906101000a900460ff1660028111156114a1576114a0613834565b5b146114e1576040517f08c379a00000000000000000000000000000000000000000000000000000000081526004016114d89061426d565b60405180910390fd5b5f5f90505f5f90505b8351811015611604575f84828151811061150757611506614625565b5b60200260200101511161154f576040517f08c379a000000000000000000000000000000000000000000000000000000000815260040161154690614792565b60405180910390fd5b5f600681111561156257611561613834565b5b85828151811061157557611574614625565b5b6020026020010151600681111561158f5761158e613834565b5b036115cf576040517f08c379a00000000000000000000000000000000000000000000000000000000081526004016115c6906142d5565b60405180910390fd5b8381815181106115e2576115e1614625565b5b6020026020010151826115f59190614367565b915080806001019150506114ea565b50803414611647576040517f08c379a000000000000000000000000000000000000000000000000000000000815260040161163e90614820565b60405180910390fd5b5f60065f8781526020019081526020015f209050806005015f3373ffffffffffffffffffffffffffffffffffffffff1673ffffffffffffffffffffffffffffffffffffffff1681526020019081526020015f205f9054906101000a900460ff1661171c576001816005015f3373ffffffffffffffffffffffffffffffffffffffff1673ffffffffffffffffffffffffffffffffffffffff1681526020019081526020015f205f6101000a81548160ff021916908315150217905550806007015f81548092919061171690614320565b91905055505b5f5f90505b85518110156119c6575f86828151811061173e5761173d614625565b5b602002602001015190505f86838151811061175c5761175b614625565b5b602002602001015190505f846004015f3373ffffffffffffffffffffffffffffffffffffffff1673ffffffffffffffffffffffffffffffffffffffff1681526020019081526020015f205f8460068111156117ba576117b9613834565b5b60068111156117cc576117cb613834565b5b81526020019081526020015f20540361187557836003015f8360068111156117f7576117f6613834565b5b600681111561180957611808613834565b5b81526020019081526020015f2033908060018154018082558091505060019003905f5260205f20015f9091909190916101000a81548173ffffffffffffffffffffffffffffffffffffffff021916908373ffffffffffffffffffffffffffffffffffffffff1602179055505b80846004015f3373ffffffffffffffffffffffffffffffffffffffff1673ffffffffffffffffffffffffffffffffffffffff1681526020019081526020015f205f8460068111156118c9576118c8613834565b5b60068111156118db576118da613834565b5b81526020019081526020015f205f8282546118f69190614367565b9250508190555080846002015f84600681111561191657611915613834565b5b600681111561192857611927613834565b5b81526020019081526020015f205f8282546119439190614367565b9250508190555080846006015f82825461195d9190614367565b925050819055503373ffffffffffffffffffffffffffffffffffffffff16897fbfcd8f4e47cc529f86cdc7eab8fb80e015a298e021fcaee72df1f76dd57cf4878484426040516119af9392919061439a565b60405180910390a350508080600101915050611721565b50505050505050565b5f60075f8373ffffffffffffffffffffffffffffffffffffffff1673ffffffffffffffffffffffffffffffffffffffff1681526020019081526020015f20549050919050565b5f5f9054906101000a900473ffffffffffffffffffffffffffffffffffffffff1673ffffffffffffffffffffffffffffffffffffffff163373ffffffffffffffffffffffffffffffffffffffff1614611aa3576040517f08c379a0000000000000000000000000000000000000000000000000000000008152600401611a9a9061449c565b60405180910390fd5b565b5f5f5f611ab06134e3565b5f5f5f875f81118015611ac4575060788111155b611b03576040517f08c379a0000000000000000000000000000000000000000000000000000000008152600401611afa90614177565b60405180910390fd5b5f60065f8b81526020019081526020015f2090505f6040518060c00160405280836002015f60016006811115611b3c57611b3b613834565b5b6006811115611b4e57611b4d613834565b5b81526020019081526020015f20548152602001836002015f60026006811115611b7a57611b79613834565b5b6006811115611b8c57611b8b613834565b5b81526020019081526020015f20548152602001836002015f60036006811115611bb857611bb7613834565b5b6006811115611bca57611bc9613834565b5b81526020019081526020015f20548152602001836002015f60046006811115611bf657611bf5613834565b5b6006811115611c0857611c07613834565b5b81526020019081526020015f20548152602001836002015f60056006811115611c3457611c33613834565b5b6006811115611c4657611c45613834565b5b81526020019081526020015f20548152602001836002015f600680811115611c7157611c70613834565b5b6006811115611c8357611c82613834565b5b81526020019081526020015f20548152509050816001015f9054906101000a900460ff168260010160019054906101000a900460ff168360060154838560070154866008015f9054906101000a900460ff168760080160019054906101000a900460ff169950995099509950995099509950505050919395979092949650565b5f835f81118015611d15575060788111155b611d54576040517f08c379a0000000000000000000000000000000000000000000000000000000008152600401611d4b90614177565b60405180910390fd5b60065f8681526020019081526020015f206004015f8573ffffffffffffffffffffffffffffffffffffffff1673ffffffffffffffffffffffffffffffffffffffff1681526020019081526020015f205f846006811115611db757611db6613834565b5b6006811115611dc957611dc8613834565b5b81526020019081526020015f20549150509392505050565b5f5f9054906101000a900473ffffffffffffffffffffffffffffffffffffffff1673ffffffffffffffffffffffffffffffffffffffff163373ffffffffffffffffffffffffffffffffffffffff1614611e6f576040517f08c379a0000000000000000000000000000000000000000000000000000000008152600401611e669061449c565b60405180910390fd5b815f81118015611e80575060788111155b611ebf576040517f08c379a0000000000000000000000000000000000000000000000000000000008152600401611eb690614177565b60405180910390fd5b5f6002811115611ed257611ed1613834565b5b60065f8581526020019081526020015f206001015f9054906101000a900460ff166002811115611f0557611f04613834565b5b14611f45576040517f08c379a0000000000000000000000000000000000000000000000000000000008152600401611f3c90614888565b60405180910390fd5b60065f8481526020019081526020015f206008015f9054906101000a900460ff16158015611f92575060065f8481526020019081526020015f2060080160019054906101000a900460ff16155b611fd1576040517f08c379a0000000000000000000000000000000000000000000000000000000008152600401611fc8906148f0565b60405180910390fd5b827f818240b4f0ccf86739623af73c82fa4df6484f69ac1d3bb0771f238793eafda5834260405161200392919061490e565b60405180910390a261201483612dc6565b505050565b5f5f9054906101000a900473ffffffffffffffffffffffffffffffffffffffff1673ffffffffffffffffffffffffffffffffffffffff163373ffffffffffffffffffffffffffffffffffffffff16146120a7576040517f08c379a000000000000000000000000000000000000000000000000000000000815260040161209e9061449c565b60405180910390fd5b805f811180156120b8575060788111155b6120f7576040517f08c379a00000000000000000000000000000000000000000000000000000000081526004016120ee90614177565b60405180910390fd5b5f600281111561210a57612109613834565b5b60065f8481526020019081526020015f206001015f9054906101000a900460ff16600281111561213d5761213c613834565b5b1461217d576040517f08c379a000000000000000000000000000000000000000000000000000000000815260040161217490614986565b60405180910390fd5b600160055461218c9190614367565b82146121cd576040517f08c379a00000000000000000000000000000000000000000000000000000000081526004016121c4906149ee565b60405180910390fd5b8160065f8481526020019081526020015f205f0181905550600160065f8481526020019081526020015f206001015f6101000a81548160ff0219169083600281111561221c5761221b613834565b5b02179055505f60065f8481526020019081526020015f2060010160016101000a81548160ff0219169083600681111561225857612257613834565b5b021790555081600581905550817f291d1b83f3b43aa0636b68ee4730403e7972b8ba37cc917ed6d8a6008d291c57426040516122949190613738565b60405180910390a25050565b5f825f811180156122b2575060788111155b6122f1576040517f08c379a00000000000000000000000000000000000000000000000000000000081526004016122e890614177565b60405180910390fd5b5f60065f8681526020019081526020015f209050806004015f8573ffffffffffffffffffffffffffffffffffffffff1673ffffffffffffffffffffffffffffffffffffffff1681526020019081526020015f205f6001600681111561235957612358613834565b5b600681111561236b5761236a613834565b5b81526020019081526020015f2054836123849190614367565b9250806004015f8573ffffffffffffffffffffffffffffffffffffffff1673ffffffffffffffffffffffffffffffffffffffff1681526020019081526020015f205f600260068111156123da576123d9613834565b5b60068111156123ec576123eb613834565b5b81526020019081526020015f2054836124059190614367565b9250806004015f8573ffffffffffffffffffffffffffffffffffffffff1673ffffffffffffffffffffffffffffffffffffffff1681526020019081526020015f205f6003600681111561245b5761245a613834565b5b600681111561246d5761246c613834565b5b81526020019081526020015f2054836124869190614367565b9250806004015f8573ffffffffffffffffffffffffffffffffffffffff1673ffffffffffffffffffffffffffffffffffffffff1681526020019081526020015f205f600460068111156124dc576124db613834565b5b60068111156124ee576124ed613834565b5b81526020019081526020015f2054836125079190614367565b9250806004015f8573ffffffffffffffffffffffffffffffffffffffff1673ffffffffffffffffffffffffffffffffffffffff1681526020019081526020015f205f6005600681111561255d5761255c613834565b5b600681111561256f5761256e613834565b5b81526020019081526020015f2054836125889190614367565b9250806004015f8573ffffffffffffffffffffffffffffffffffffffff1673ffffffffffffffffffffffffffffffffffffffff1681526020019081526020015f205f6006808111156125dd576125dc613834565b5b60068111156125ef576125ee613834565b5b81526020019081526020015f2054836126089190614367565b9250505092915050565b5f47905090565b60028054612626906143fc565b80601f0160208091040260200160405190810160405280929190818152602001828054612652906143fc565b801561269d5780601f106126745761010080835404028352916020019161269d565b820191905f5260205f20905b81548152906001019060200180831161268057829003601f168201915b505050505081565b600380546126b2906143fc565b80601f01602080910402602001604051908101604052809291908181526020018280546126de906143fc565b80156127295780601f1061270057610100808354040283529160200191612729565b820191905f5260205f20905b81548152906001019060200180831161270c57829003601f168201915b505050505081565b5f5f9054906101000a900473ffffffffffffffffffffffffffffffffffffffff1681565b6006602052805f5260405f205f91509050805f015490806001015f9054906101000a900460ff16908060010160019054906101000a900460ff1690806006015490806007015490806008015f9054906101000a900460ff16908060080160019054906101000a900460ff16905087565b60055481565b60045481565b6060600160068111156127e7576127e6613834565b5b8260068111156127fa576127f9613834565b5b0361283c576040518060400160405280600e81526020017f426f756e646172792028342f36290000000000000000000000000000000000008152509050612a81565b600260068111156128505761284f613834565b5b82600681111561286357612862613834565b5b036128a5576040518060400160405280600681526020017f5769636b657400000000000000000000000000000000000000000000000000008152509050612a81565b600360068111156128b9576128b8613834565b5b8260068111156128cc576128cb613834565b5b0361290e576040518060400160405280600881526020017f446f742042616c6c0000000000000000000000000000000000000000000000008152509050612a81565b6004600681111561292257612921613834565b5b82600681111561293557612934613834565b5b03612977576040518060400160405280600581526020017f312052756e0000000000000000000000000000000000000000000000000000008152509050612a81565b6005600681111561298b5761298a613834565b5b82600681111561299e5761299d613834565b5b036129e0576040518060400160405280600681526020017f322052756e7300000000000000000000000000000000000000000000000000008152509050612a81565b6006808111156129f3576129f2613834565b5b826006811115612a0657612a05613834565b5b03612a48576040518060400160405280601581526020017f4578747261732028576964652f4e6f2042616c6c2900000000000000000000008152509050612a81565b6040518060400160405280600781526020017f50656e64696e670000000000000000000000000000000000000000000000000081525090505b919050565b60015f9054906101000a900473ffffffffffffffffffffffffffffffffffffffff1681565b607881565b5f5f9054906101000a900473ffffffffffffffffffffffffffffffffffffffff1673ffffffffffffffffffffffffffffffffffffffff163373ffffffffffffffffffffffffffffffffffffffff1614612b3e576040517f08c379a0000000000000000000000000000000000000000000000000000000008152600401612b359061449c565b60405180910390fd5b815f81118015612b4f575060788111155b612b8e576040517f08c379a0000000000000000000000000000000000000000000000000000000008152600401612b8590614177565b60405180910390fd5b5f6002811115612ba157612ba0613834565b5b60065f8581526020019081526020015f206001015f9054906101000a900460ff166002811115612bd457612bd3613834565b5b14612c14576040517f08c379a0000000000000000000000000000000000000000000000000000000008152600401612c0b90614888565b60405180910390fd5b5f6006811115612c2757612c26613834565b5b826006811115612c3a57612c39613834565b5b03612c7a576040517f08c379a0000000000000000000000000000000000000000000000000000000008152600401612c7190614a56565b60405180910390fd5b60065f8481526020019081526020015f206008015f9054906101000a900460ff16158015612cc7575060065f8481526020019081526020015f2060080160019054906101000a900460ff16155b612d06576040517f08c379a0000000000000000000000000000000000000000000000000000000008152600401612cfd906148f0565b60405180910390fd5b8160065f8581526020019081526020015f2060010160016101000a81548160ff02191690836006811115612d3d57612d3c613834565b5b0217905550600260065f8581526020019081526020015f206001015f6101000a81548160ff02191690836002811115612d7957612d78613834565b5b0217905550827f5211f9be544837238a73fb7e20c869b0ded382cced50128e806ac599e47e45198342604051612db0929190614a74565b60405180910390a2612dc18361316e565b505050565b5f60065f8381526020019081526020015f2090505f5f90505f5f90505f6040518060c0016040528060016006811115612e0257612e01613834565b5b6006811115612e1457612e13613834565b5b815260200160026006811115612e2d57612e2c613834565b5b6006811115612e3f57612e3e613834565b5b815260200160036006811115612e5857612e57613834565b5b6006811115612e6a57612e69613834565b5b815260200160046006811115612e8357612e82613834565b5b6006811115612e9557612e94613834565b5b815260200160056006811115612eae57612ead613834565b5b6006811115612ec057612ebf613834565b5b8152602001600680811115612ed857612ed7613834565b5b6006811115612eea57612ee9613834565b5b81525090505f5f90505b600681101561310d575f828260068110612f1157612f10614625565b5b602002015190505f866003015f836006811115612f3157612f30613834565b5b6006811115612f4357612f42613834565b5b81526020019081526020015f20805480602002602001604051908101604052809291908181526020018280548015612fcd57602002820191905f5260205f20905b815f9054906101000a900473ffffffffffffffffffffffffffffffffffffffff1673ffffffffffffffffffffffffffffffffffffffff1681526020019060010190808311612f84575b505050505090505f5f90505b81518110156130fd575f828281518110612ff657612ff5614625565b5b602002602001015190505f896004015f8373ffffffffffffffffffffffffffffffffffffffff1673ffffffffffffffffffffffffffffffffffffffff1681526020019081526020015f205f86600681111561305457613053613834565b5b600681111561306657613065613834565b5b81526020019081526020015f205490505f8111156130ee578060075f8473ffffffffffffffffffffffffffffffffffffffff1673ffffffffffffffffffffffffffffffffffffffff1681526020019081526020015f205f8282546130ca9190614367565b9250508190555080896130dd9190614367565b985087806130ea90614320565b9850505b50508080600101915050612fd9565b5050508080600101915050612ef4565b5060018460080160016101000a81548160ff021916908315150217905550847f0b807bbd7b57312d116372fed998c55b214f5eaaddf6bd9ee33de5b739b9fcde84844260405161315f93929190614a9b565b60405180910390a25050505050565b5f60065f8381526020019081526020015f2090505f8160010160019054906101000a900460ff1690505f826002015f8360068111156131b0576131af613834565b5b60068111156131c2576131c1613834565b5b81526020019081526020015f2054036131e5576131de83612dc6565b50506131f1565b6131ee836131f4565b50505b50565b5f60065f8381526020019081526020015f2090505f8160010160019054906101000a900460ff1690505f826003015f83600681111561323657613235613834565b5b600681111561324857613247613834565b5b81526020019081526020015f208054806020026020016040519081016040528092919081815260200182805480156132d257602002820191905f5260205f20905b815f9054906101000a900473ffffffffffffffffffffffffffffffffffffffff1673ffffffffffffffffffffffffffffffffffffffff1681526020019060010190808311613289575b505050505090505f836002015f8460068111156132f2576132f1613834565b5b600681111561330457613303613834565b5b81526020019081526020015f205490505f846006015490505f5f90505b835181101561343b575f84828151811061333e5761333d614625565b5b602002602001015190505f876004015f8373ffffffffffffffffffffffffffffffffffffffff1673ffffffffffffffffffffffffffffffffffffffff1681526020019081526020015f205f88600681111561339c5761339b613834565b5b60068111156133ae576133ad613834565b5b81526020019081526020015f205490505f8585836133cc9190614ad0565b6133d69190614b3e565b90508060075f8573ffffffffffffffffffffffffffffffffffffffff1673ffffffffffffffffffffffffffffffffffffffff1681526020019081526020015f205f8282546134249190614367565b925050819055505050508080600101915050613321565b506001856008015f6101000a81548160ff021916908315150217905550857fc61d96cd192999e5e90d09489a76a97d62f3fa653cf753163b1aa7f668dadd5b858386514260405161348f9493929190614b6e565b60405180910390a2607886036134db577f991e491269dfe69f420335bc2b25883adb8c195c28e0a0670809b390145cb056600454426040516134d2929190614bb1565b60405180910390a15b505050505050565b6040518060c00160405280600690602082028036833780820191505090505090565b5f604051905090565b5f5ffd5b5f5ffd5b5f819050919050565b61352881613516565b8114613532575f5ffd5b50565b5f813590506135438161351f565b92915050565b60078110613555575f5ffd5b50565b5f8135905061356681613549565b92915050565b5f5f604083850312156135825761358161350e565b5b5f61358f85828601613535565b92505060206135a085828601613558565b9150509250929050565b5f81519050919050565b5f82825260208201905092915050565b8281835e5f83830152505050565b5f601f19601f8301169050919050565b5f6135ec826135aa565b6135f681856135b4565b93506136068185602086016135c4565b61360f816135d2565b840191505092915050565b61362381613516565b82525050565b5f60a0820190508181035f83015261364181886135e2565b9050818103602083015261365581876135e2565b9050613664604083018661361a565b613671606083018561361a565b61367e608083018461361a565b9695505050505050565b5f6020828403121561369d5761369c61350e565b5b5f6136aa84828501613535565b91505092915050565b5f73ffffffffffffffffffffffffffffffffffffffff82169050919050565b5f6136dc826136b3565b9050919050565b6136ec816136d2565b81146136f6575f5ffd5b50565b5f81359050613707816136e3565b92915050565b5f602082840312156137225761372161350e565b5b5f61372f848285016136f9565b91505092915050565b5f60208201905061374b5f83018461361a565b92915050565b5f610100820190506137655f83018b61361a565b613772602083018a61361a565b61377f604083018961361a565b61378c606083018861361a565b613799608083018761361a565b6137a660a083018661361a565b6137b360c083018561361a565b6137c060e083018461361a565b9998505050505050505050565b5f5f604083850312156137e3576137e261350e565b5b5f6137f085828601613535565b925050602061380185828601613535565b9150509250929050565b5f81519050919050565b5f82825260208201905092915050565b5f819050602082019050919050565b7f4e487b71000000000000000000000000000000000000000000000000000000005f52602160045260245ffd5b6003811061387257613871613834565b5b50565b5f81905061388282613861565b919050565b5f61389182613875565b9050919050565b6138a181613887565b82525050565b5f6138b28383613898565b60208301905092915050565b5f602082019050919050565b5f6138d48261380b565b6138de8185613815565b93506138e983613825565b805f5b8381101561391957815161390088826138a7565b975061390b836138be565b9250506001810190506138ec565b5085935050505092915050565b5f81519050919050565b5f819050602082019050919050565b600781106139505761394f613834565b5b50565b5f8190506139608261393f565b919050565b5f61396f82613953565b9050919050565b61397f81613965565b82525050565b5f6139908383613976565b60208301905092915050565b5f602082019050919050565b5f6139b282613926565b6139bc8185613815565b93506139c783613930565b805f5b838110156139f75781516139de8882613985565b97506139e98361399c565b9250506001810190506139ca565b5085935050505092915050565b5f81519050919050565b5f82825260208201905092915050565b5f819050602082019050919050565b613a3681613516565b82525050565b5f613a478383613a2d565b60208301905092915050565b5f602082019050919050565b5f613a6982613a04565b613a738185613a0e565b9350613a7e83613a1e565b805f5b83811015613aae578151613a958882613a3c565b9750613aa083613a53565b925050600181019050613a81565b5085935050505092915050565b5f6060820190508181035f830152613ad381866138ca565b90508181036020830152613ae781856139a8565b90508181036040830152613afb8184613a5f565b9050949350505050565b5f5ffd5b7f4e487b71000000000000000000000000000000000000000000000000000000005f52604160045260245ffd5b613b3f826135d2565b810181811067ffffffffffffffff82111715613b5e57613b5d613b09565b5b80604052505050565b5f613b70613505565b9050613b7c8282613b36565b919050565b5f67ffffffffffffffff821115613b9b57613b9a613b09565b5b602082029050602081019050919050565b5f5ffd5b5f613bc2613bbd84613b81565b613b67565b90508083825260208201905060208402830185811115613be557613be4613bac565b5b835b81811015613c0e5780613bfa8882613558565b845260208401935050602081019050613be7565b5050509392505050565b5f82601f830112613c2c57613c2b613b05565b5b8135613c3c848260208601613bb0565b91505092915050565b5f67ffffffffffffffff821115613c5f57613c5e613b09565b5b602082029050602081019050919050565b5f613c82613c7d84613c45565b613b67565b90508083825260208201905060208402830185811115613ca557613ca4613bac565b5b835b81811015613cce5780613cba8882613535565b845260208401935050602081019050613ca7565b5050509392505050565b5f82601f830112613cec57613ceb613b05565b5b8135613cfc848260208601613c70565b91505092915050565b5f5f5f60608486031215613d1c57613d1b61350e565b5b5f613d2986828701613535565b935050602084013567ffffffffffffffff811115613d4a57613d49613512565b5b613d5686828701613c18565b925050604084013567ffffffffffffffff811115613d7757613d76613512565b5b613d8386828701613cd8565b9150509250925092565b613d9681613887565b82525050565b613da581613965565b82525050565b5f60069050919050565b5f81905092915050565b5f819050919050565b5f602082019050919050565b613ddd81613dab565b613de78184613db5565b9250613df282613dbf565b805f5b83811015613e22578151613e098782613a3c565b9650613e1483613dc8565b925050600181019050613df5565b505050505050565b5f8115159050919050565b613e3e81613e2a565b82525050565b5f61018082019050613e585f83018a613d8d565b613e656020830189613d9c565b613e72604083018861361a565b613e7f6060830187613dd4565b613e8d61012083018661361a565b613e9b610140830185613e35565b613ea9610160830184613e35565b98975050505050505050565b5f5f5f60608486031215613ecc57613ecb61350e565b5b5f613ed986828701613535565b9350506020613eea868287016136f9565b9250506040613efb86828701613558565b9150509250925092565b5f5ffd5b5f67ffffffffffffffff821115613f2357613f22613b09565b5b613f2c826135d2565b9050602081019050919050565b828183375f83830152505050565b5f613f59613f5484613f09565b613b67565b905082815260208101848484011115613f7557613f74613f05565b5b613f80848285613f39565b509392505050565b5f82601f830112613f9c57613f9b613b05565b5b8135613fac848260208601613f47565b91505092915050565b5f5f60408385031215613fcb57613fca61350e565b5b5f613fd885828601613535565b925050602083013567ffffffffffffffff811115613ff957613ff8613512565b5b61400585828601613f88565b9150509250929050565b5f5f604083850312156140255761402461350e565b5b5f61403285828601613535565b9250506020614043858286016136f9565b9150509250929050565b5f6020820190508181035f83015261406581846135e2565b905092915050565b614076816136d2565b82525050565b5f60208201905061408f5f83018461406d565b92915050565b5f60e0820190506140a85f83018a61361a565b6140b56020830189613d8d565b6140c26040830188613d9c565b6140cf606083018761361a565b6140dc608083018661361a565b6140e960a0830185613e35565b6140f660c0830184613e35565b98975050505050505050565b5f602082840312156141175761411661350e565b5b5f61412484828501613558565b91505092915050565b7f496e76616c69642062616c6c206e756d626572000000000000000000000000005f82015250565b5f6141616013836135b4565b915061416c8261412d565b602082019050919050565b5f6020820190508181035f83015261418e81614155565b9050919050565b7f42657420616d6f756e74206d7573742062652067726561746572207468616e205f8201527f3000000000000000000000000000000000000000000000000000000000000000602082015250565b5f6141ef6021836135b4565b91506141fa82614195565b604082019050919050565b5f6020820190508181035f83015261421c816141e3565b9050919050565b7f42657474696e67206e6f74206f70656e20666f7220746869732062616c6c00005f82015250565b5f614257601e836135b4565b915061426282614223565b602082019050919050565b5f6020820190508181035f8301526142848161424b565b9050919050565b7f43616e6e6f7420626574206f6e2050454e44494e47206f7574636f6d650000005f82015250565b5f6142bf601d836135b4565b91506142ca8261428b565b602082019050919050565b5f6020820190508181035f8301526142ec816142b3565b9050919050565b7f4e487b71000000000000000000000000000000000000000000000000000000005f52601160045260245ffd5b5f61432a82613516565b91507fffffffffffffffffffffffffffffffffffffffffffffffffffffffffffffffff820361435c5761435b6142f3565b5b600182019050919050565b5f61437182613516565b915061437c83613516565b9250828201905080821115614394576143936142f3565b5b92915050565b5f6060820190506143ad5f830186613d9c565b6143ba602083018561361a565b6143c7604083018461361a565b949350505050565b7f4e487b71000000000000000000000000000000000000000000000000000000005f52602260045260245ffd5b5f600282049050600182168061441357607f821691505b602082108103614426576144256143cf565b5b50919050565b7f4f6e6c79206f776e65722063616e2063616c6c20746869732066756e6374696f5f8201527f6e00000000000000000000000000000000000000000000000000000000000000602082015250565b5f6144866021836135b4565b91506144918261442c565b604082019050919050565b5f6020820190508181035f8301526144b38161447a565b9050919050565b7f42616c6c206e6f74206f70656e20666f722062657474696e67000000000000005f82015250565b5f6144ee6019836135b4565b91506144f9826144ba565b602082019050919050565b5f6020820190508181035f83015261451b816144e2565b9050919050565b7f4e6f2062616c616e636520746f207769746864726177000000000000000000005f82015250565b5f6145566016836135b4565b915061456182614522565b602082019050919050565b5f6020820190508181035f8301526145838161454a565b9050919050565b7f496e76616c69642072616e6765000000000000000000000000000000000000005f82015250565b5f6145be600d836135b4565b91506145c98261458a565b602082019050919050565b5f6020820190508181035f8301526145eb816145b2565b9050919050565b5f6145fc82613516565b915061460783613516565b925082820390508181111561461f5761461e6142f3565b5b92915050565b7f4e487b71000000000000000000000000000000000000000000000000000000005f52603260045260245ffd5b7f417272617973206c656e677468206d69736d61746368000000000000000000005f82015250565b5f6146866016836135b4565b915061469182614652565b602082019050919050565b5f6020820190508181035f8301526146b38161467a565b9050919050565b7f4e6f2062657473207370656369666965640000000000000000000000000000005f82015250565b5f6146ee6011836135b4565b91506146f9826146ba565b602082019050919050565b5f6020820190508181035f83015261471b816146e2565b9050919050565b7f416c6c2062657420616d6f756e7473206d7573742062652067726561746572205f8201527f7468616e20300000000000000000000000000000000000000000000000000000602082015250565b5f61477c6026836135b4565b915061478782614722565b604082019050919050565b5f6020820190508181035f8301526147a981614770565b9050919050565b7f53656e742076616c756520646f65736e2774206d6174636820746f74616c20625f8201527f657420616d6f756e747300000000000000000000000000000000000000000000602082015250565b5f61480a602a836135b4565b9150614815826147b0565b604082019050919050565b5f6020820190508181035f830152614837816147fe565b9050919050565b7f42616c6c206d75737420626520636c6f736564206669727374000000000000005f82015250565b5f6148726019836135b4565b915061487d8261483e565b602082019050919050565b5f6020820190508181035f83015261489f81614866565b9050919050565b7f416c72656164792070726f6365737365640000000000000000000000000000005f82015250565b5f6148da6011836135b4565b91506148e5826148a6565b602082019050919050565b5f6020820190508181035f830152614907816148ce565b9050919050565b5f6040820190508181035f83015261492681856135e2565b9050614935602083018461361a565b9392505050565b7f42616c6c20616c7265616479206f70656e6564206f72207265736f6c766564005f82015250565b5f614970601f836135b4565b915061497b8261493c565b602082019050919050565b5f6020820190508181035f83015261499d81614964565b9050919050565b7f4d757374206f70656e2062616c6c7320696e2073657175656e636500000000005f82015250565b5f6149d8601b836135b4565b91506149e3826149a4565b602082019050919050565b5f6020820190508181035f830152614a05816149cc565b9050919050565b7f526573756c742063616e6e6f742062652050454e44494e4700000000000000005f82015250565b5f614a406018836135b4565b9150614a4b82614a0c565b602082019050919050565b5f6020820190508181035f830152614a6d81614a34565b9050919050565b5f604082019050614a875f830185613d9c565b614a94602083018461361a565b9392505050565b5f606082019050614aae5f83018661361a565b614abb602083018561361a565b614ac8604083018461361a565b949350505050565b5f614ada82613516565b9150614ae583613516565b9250828202614af381613516565b91508282048414831517614b0a57614b096142f3565b5b5092915050565b7f4e487b71000000000000000000000000000000000000000000000000000000005f52601260045260245ffd5b5f614b4882613516565b9150614b5383613516565b925082614b6357614b62614b11565b5b828204905092915050565b5f608082019050614b815f830187613d9c565b614b8e602083018661361a565b614b9b604083018561361a565b614ba8606083018461361a565b95945050505050565b5f604082019050614bc45f83018561361a565b614bd1602083018461361a565b939250505056fea26469706673582212206c575f14dad1a9f1c98b0a6b87c46a88510a5b2240656d119d96d5059e4d39bc64736f6c634300081e0033","linkReferences":{}},"methodIdentifiers":{"TOTAL_BALLS()":"dba71be6","balls(uint256)":"90004781","cancelBall(uint256,string)":"67d85375","closeBall(uint256)":"162523b3","currentBall()":"98c40f35","emergencyPause()":"51858e27","factory()":"c45a0155","getBallBettingDetails(uint256)":"3371c0bf","getBallInfo(uint256)":"53be326a","getBallOutcomeString(uint8)":"9e4f372b","getContractBalance()":"6f9fb98a","getMatchInfo()":"063c67c2","getMultipleBallsInfo(uint256,uint256)":"3e98275f","getUserBalance(address)":"47734892","getUserBetForBall(uint256,address,uint8)":"55b00637","getUserTotalBetForBall(uint256,address)":"6e777921","matchId()":"99892e47","openBall(uint256)":"6c21e514","owner()":"8da5cb5b","placeBet(uint256,uint8)":"03edf914","placeBets(uint256,uint8[],uint256[])":"42c4ee5d","reportBallResult(uint256,uint8)":"edfbcba3","teamA()":"826df9aa","teamB()":"8aa7c3e8","userBalances(address)":"26224c64","withdraw()":"3ccfd60b"},"id":28}