{
  "_format": "hh-sol-artifact-1",
  "contractName": "GhostPass",
  "sourceName": "contracts/GhostPass.sol",
  "abi": [
    {
      "inputs": [],
      "stateMutability": "nonpayable",
      "type": "constructor"
    },
    {
      "anonymous": false,
      "inputs": [
        {
          "indexed": true,
          "internalType": "address",
          "name": "wallet",
          "type": "address"
        },
        {
          "indexed": false,
          "internalType": "bool",
          "name": "status",
          "type": "bool"
        }
      ],
      "name": "WalletVerified",
      "type": "event"
    },
    {
      "inputs": [
        {
          "internalType": "address",
          "name": "wallet",
          "type": "address"
        }
      ],
      "name": "isVerified",
      "outputs": [
        {
          "internalType": "bool",
          "name": "",
          "type": "bool"
        }
      ],
      "stateMutability": "view",
      "type": "function"
    },
    {
      "inputs": [],
      "name": "owner",
      "outputs": [
        {
          "internalType": "address",
          "name": "",
          "type": "address"
        }
      ],
      "stateMutability": "view",
      "type": "function"
    },
    {
      "inputs": [
        {
          "internalType": "address[]",
          "name": "wallets",
          "type": "address[]"
        }
      ],
      "name": "revokeVerification",
      "outputs": [],
      "stateMutability": "nonpayable",
      "type": "function"
    },
    {
      "inputs": [
        {
          "internalType": "address",
          "name": "newOwner",
          "type": "address"
        }
      ],
      "name": "transferOwnership",
      "outputs": [],
      "stateMutability": "nonpayable",
      "type": "function"
    },
    {
      "inputs": [
        {
          "internalType": "address[]",
          "name": "wallets",
          "type": "address[]"
        }
      ],
      "name": "verifyUser",
      "outputs": [],
      "stateMutability": "nonpayable",
      "type": "function"
    }
  ],
  "bytecode": "0x6080604052348015600f57600080fd5b50336000806101000a81548173ffffffffffffffffffffffffffffffffffffffff021916908373ffffffffffffffffffffffffffffffffffffffff1602179055506108c98061005f6000396000f3fe608060405234801561001057600080fd5b50600436106100575760003560e01c806348639b6c1461005c5780638da5cb5b14610078578063a44656b414610096578063b9209e33146100b2578063f2fde38b146100e2575b600080fd5b6100766004803603810190610071919061066c565b6100fe565b005b6100806102a0565b60405161008d91906106fa565b60405180910390f35b6100b060048036038101906100ab919061066c565b6102c4565b005b6100cc60048036038101906100c79190610741565b610467565b6040516100d99190610789565b60405180910390f35b6100fc60048036038101906100f79190610741565b6104bd565b005b60008054906101000a900473ffffffffffffffffffffffffffffffffffffffff1673ffffffffffffffffffffffffffffffffffffffff163373ffffffffffffffffffffffffffffffffffffffff161461018c576040517f08c379a000000000000000000000000000000000000000000000000000000000815260040161018390610801565b60405180910390fd5b60005b8282905081101561029b5760018060008585858181106101b2576101b1610821565b5b90506020020160208101906101c79190610741565b73ffffffffffffffffffffffffffffffffffffffff1673ffffffffffffffffffffffffffffffffffffffff16815260200190815260200160002060006101000a81548160ff02191690831515021790555082828281811061022b5761022a610821565b5b90506020020160208101906102409190610741565b73ffffffffffffffffffffffffffffffffffffffff167f7cbaa037b0095c041e3e37aad4a13a9fec5221671107cb385eee7987fafe73b860016040516102869190610789565b60405180910390a2808060010191505061018f565b505050565b60008054906101000a900473ffffffffffffffffffffffffffffffffffffffff1681565b60008054906101000a900473ffffffffffffffffffffffffffffffffffffffff1673ffffffffffffffffffffffffffffffffffffffff163373ffffffffffffffffffffffffffffffffffffffff1614610352576040517f08c379a000000000000000000000000000000000000000000000000000000000815260040161034990610801565b60405180910390fd5b60005b828290508110156104625760006001600085858581811061037957610378610821565b5b905060200201602081019061038e9190610741565b73ffffffffffffffffffffffffffffffffffffffff1673ffffffffffffffffffffffffffffffffffffffff16815260200190815260200160002060006101000a81548160ff0219169083151502179055508282828181106103f2576103f1610821565b5b90506020020160208101906104079190610741565b73ffffffffffffffffffffffffffffffffffffffff167f7cbaa037b0095c041e3e37aad4a13a9fec5221671107cb385eee7987fafe73b8600060405161044d9190610789565b60405180910390a28080600101915050610355565b505050565b6000600160008373ffffffffffffffffffffffffffffffffffffffff1673ffffffffffffffffffffffffffffffffffffffff16815260200190815260200160002060009054906101000a900460ff169050919050565b60008054906101000a900473ffffffffffffffffffffffffffffffffffffffff1673ffffffffffffffffffffffffffffffffffffffff163373ffffffffffffffffffffffffffffffffffffffff161461054b576040517f08c379a000000000000000000000000000000000000000000000000000000000815260040161054290610801565b60405180910390fd5b600073ffffffffffffffffffffffffffffffffffffffff168173ffffffffffffffffffffffffffffffffffffffff16036105ba576040517f08c379a00000000000000000000000000000000000000000000000000000000081526004016105b19061089c565b60405180910390fd5b806000806101000a81548173ffffffffffffffffffffffffffffffffffffffff021916908373ffffffffffffffffffffffffffffffffffffffff16021790555050565b600080fd5b600080fd5b600080fd5b600080fd5b600080fd5b60008083601f84011261062c5761062b610607565b5b8235905067ffffffffffffffff8111156106495761064861060c565b5b60208301915083602082028301111561066557610664610611565b5b9250929050565b60008060208385031215610683576106826105fd565b5b600083013567ffffffffffffffff8111156106a1576106a0610602565b5b6106ad85828601610616565b92509250509250929050565b600073ffffffffffffffffffffffffffffffffffffffff82169050919050565b60006106e4826106b9565b9050919050565b6106f4816106d9565b82525050565b600060208201905061070f60008301846106eb565b92915050565b61071e816106d9565b811461072957600080fd5b50565b60008135905061073b81610715565b92915050565b600060208284031215610757576107566105fd565b5b60006107658482850161072c565b91505092915050565b60008115159050919050565b6107838161076e565b82525050565b600060208201905061079e600083018461077a565b92915050565b600082825260208201905092915050565b7f4e6f7420746865206f776e657200000000000000000000000000000000000000600082015250565b60006107eb600d836107a4565b91506107f6826107b5565b602082019050919050565b6000602082019050818103600083015261081a816107de565b9050919050565b7f4e487b7100000000000000000000000000000000000000000000000000000000600052603260045260246000fd5b7f496e76616c696420616464726573730000000000000000000000000000000000600082015250565b6000610886600f836107a4565b915061089182610850565b602082019050919050565b600060208201905081810360008301526108b581610879565b905091905056fea164736f6c634300081c000a",
  "linkReferences": {},
  "deployedLinkReferences": {}
}